{
  "contractName": "Contest",
  "abi": [
    {
      "inputs": [],
      "payable": false,
      "stateMutability": "nonpayable",
      "type": "constructor"
    },
    {
      "constant": true,
      "inputs": [
        {
          "internalType": "uint256",
          "name": "",
          "type": "uint256"
        }
      ],
      "name": "contestants",
      "outputs": [
        {
          "internalType": "uint256",
          "name": "id",
          "type": "uint256"
        },
        {
          "internalType": "string",
          "name": "name",
          "type": "string"
        },
        {
          "internalType": "uint256",
          "name": "voteCount",
          "type": "uint256"
        }
      ],
      "payable": false,
      "stateMutability": "view",
      "type": "function"
    },
    {
      "constant": true,
      "inputs": [],
      "name": "contestantsCount",
      "outputs": [
        {
          "internalType": "uint256",
          "name": "",
          "type": "uint256"
        }
      ],
      "payable": false,
      "stateMutability": "view",
      "type": "function"
    },
    {
      "constant": true,
      "inputs": [
        {
          "internalType": "address",
          "name": "",
          "type": "address"
        }
      ],
      "name": "voters",
      "outputs": [
        {
          "internalType": "bool",
          "name": "",
          "type": "bool"
        }
      ],
      "payable": false,
      "stateMutability": "view",
      "type": "function"
    },
    {
      "constant": false,
      "inputs": [
        {
          "internalType": "uint256",
          "name": "_contestantId",
          "type": "uint256"
        }
      ],
      "name": "vote",
      "outputs": [],
      "payable": false,
      "stateMutability": "nonpayable",
      "type": "function"
    }
  ],
  "bytecode": "0x608060405234801561001057600080fd5b506100556040518060400160405280601481526020017f4268617274697961204a616e746120506172747900000000000000000000000081525061012660201b60201c565b6100996040518060400160405280601881526020017f496e6469616e204e6174696f6e616c20436f6e6772657373000000000000000081525061012660201b60201c565b6100dd6040518060400160405280600f81526020017f41616d204161646d69205061727479000000000000000000000000000000000081525061012660201b60201c565b6101216040518060400160405280601781526020017f426168756a616e2053616d616a7661646920506172747900000000000000000081525061012660201b60201c565b610246565b60026000815480929190600101919050555060405180606001604052806002548152602001828152602001600081525060008060025481526020019081526020016000206000820151816000015560208201518160010190805190602001906101909291906101a1565b506040820151816002015590505050565b828054600181600116156101000203166002900490600052602060002090601f016020900481019282601f106101e257805160ff1916838001178555610210565b82800160010185558215610210579182015b8281111561020f5782518255916020019190600101906101f4565b5b50905061021d9190610221565b5090565b61024391905b8082111561023f576000816000905550600101610227565b5090565b90565b6103bc806102556000396000f3fe608060405234801561001057600080fd5b506004361061004c5760003560e01c80630121b93f14610051578063a3ec138d1461007f578063dfd50f52146100db578063ec63d1c814610190575b600080fd5b61007d6004803603602081101561006757600080fd5b81019080803590602001909291905050506101ae565b005b6100c16004803603602081101561009557600080fd5b81019080803573ffffffffffffffffffffffffffffffffffffffff16906020019092919050505061029f565b604051808215151515815260200191505060405180910390f35b610107600480360360208110156100f157600080fd5b81019080803590602001909291905050506102bf565b6040518084815260200180602001838152602001828103825284818151815260200191508051906020019080838360005b83811015610153578082015181840152602081019050610138565b50505050905090810190601f1680156101805780820380516001836020036101000a031916815260200191505b5094505050505060405180910390f35b610198610381565b6040518082815260200191505060405180910390f35b600160003373ffffffffffffffffffffffffffffffffffffffff1673ffffffffffffffffffffffffffffffffffffffff16815260200190815260200160002060009054906101000a900460ff161561020557600080fd5b60008111801561021757506002548111155b61022057600080fd5b6000808281526020019081526020016000206002016000815480929190600101919050555060018060003373ffffffffffffffffffffffffffffffffffffffff1673ffffffffffffffffffffffffffffffffffffffff16815260200190815260200160002060006101000a81548160ff02191690831515021790555050565b60016020528060005260406000206000915054906101000a900460ff1681565b6000602052806000526040600020600091509050806000015490806001018054600181600116156101000203166002900480601f0160208091040260200160405190810160405280929190818152602001828054600181600116156101000203166002900480156103715780601f1061034657610100808354040283529160200191610371565b820191906000526020600020905b81548152906001019060200180831161035457829003601f168201915b5050505050908060020154905083565b6002548156fea265627a7a72315820e3e4e54602e2e35e58bcefb1072fccb2fe663b1b111b64db14994bdb99e6c23764736f6c63430005100032",
  "source": "pragma solidity ^0.5.16;\n\ncontract Contest {\n\nstruct  Contestant  {\n    uint id;\n    string name;\n    uint voteCount;\n}\nmapping(uint => Contestant) public contestants;\n\nmapping (address => bool) public voters;\n\nuint public contestantsCount;\nconstructor() public{\n     addContestant(\"Bhartiya Janta Party\");\n    addContestant(\"Indian National Congress\");\n    addContestant(\"Aam Aadmi Party\");\n    addContestant(\"Bahujan Samajvadi Party\");\n    // addContestant(\"Samajvadi Party\");\n   \n\n}\n\n\n\nfunction addContestant(string memory _name) private {\ncontestantsCount ++;\n\n\n\ncontestants[contestantsCount] = Contestant(contestantsCount,_name,0);\n\n\n}\nfunction vote(uint _contestantId) public {\n  \n   require(!voters[msg.sender]);\n   require(_contestantId > 0 && _contestantId <= contestantsCount);\n   \n    contestants[_contestantId].voteCount ++;\n\n    voters[msg.sender] = true;\n\n}\n\n\n}\n\n",
  "sourcePath": "D:\\-BlockChain-Voting-System-Project-master\\-BlockChain-Voting-System-Project-master\\contracts\\Contest.sol",
  "compiler": {
    "name": "solc",
    "version": "0.5.16+commit.9c3226ce.Emscripten.clang"
  },
  "schemaVersion": "3.4.10",
  "updatedAt": "2022-11-23T11:18:29.944Z",
  "networkType": "ethereum",
  "devdoc": {
    "methods": {}
  },
  "userdoc": {
    "methods": {}
  }
}